:100000006F00E037000000003A0100003C010000F2
:1000100000000000000000000000000000000000E0
:1000200000000000000000000000000000000000D0
:100030007C030000000000007C03000000000000C2
:100040007C0300007C0300007C0300007C030000B4
:100050007C0300007C0300007C0300007C030000A4
:100060007C0300007C0300007C0300007C03000094
:100070007C0300007C0300007C0300007C03000084
:100080007C0300007C0300007C0300007C03000074
:100090007C0300007C0300007C0300007C03000064
:0800A0007C03000000000000D9
:1000A800511126C022C206C4828282441244A24050
:1000B80031018280634E050263C305042E86AA853A
:1000C8007D5515C285466378B6006356C00006069E
:1000D8008606E36CB6FE014563E4C500918D558D37
:1000E80085820582F5FA82808682C93F2E858282C2
:1000F8003305A0406347B000B305B040C1B7B305AE
:10010800B0408682653F3305A0408282868263C7FD
:100118000500634905005D372E858282B305B0402E
:10012800E35B05FE3305A040513F3305B0408282B2
:10013800000001A0B707EFBE37E700E09387070884
:100148003CC701A0EFF2DFF551118545414502C0DA
:1001580002C202C4EF00807989477C8085473EC28D
:100168008A85C147371501403EC4FD2C310135BF92
:10017800EFF21FF341110545F52B612AEF00B00797
:10018800056513058538EF00900A7165130505208C
:10019800EF00100DB707002083A5070105651305BB
:1001A800C51AEF007078992CAA8505651305C51B3B
:1001B800EF00907705651305C51CEF00107985459C
:1001C8004545EF00A072854537050010EF00E07344
:1001D80005459525853F930700203EC091473EC2BF
:1001E800B1473EC40A8585473EC6312C1305100623
:1001F800EF00807365DD3945692B65455523054555
:10020800BD2B05651305451DEF003074814401447D
:1002180085671385C71DEF0050730565A285130513
:10022800451EEF0070700945592B716513050520AF
:10023800EF0010030565A2851305C51FEF00D06EFA
:100248002686894537150140592C93C414000504A6
:10025800C1B7EFF2FFE48946B727024037140240DE
:1002680094C31C403707FF68C17493E717001CC08C
:100278005C40FD14F98F5CC01C403707D7FE6D1732
:10028800F98F37071000D98F1CC01C403707FCFFB7
:100298007D17F98F1CC05C40E58F5CC0B7079D00D7
:1002A8001CC41C4C93E707021CCCB717014093876A
:1002B800074098431377F7F098C3984313670708E4
:1002C80098C394CB15245C4037070001B706000299
:1002D8005CC05C40E58F5CC05C405CC01C40D98F52
:1002E8001CC0B71702409843758F75DFD843B716FF
:1002F8000240719BD8C3D84313672700D8C321474E
:10030800DC42B18BE39EE7FEB7270240094798C35A
:1003180069BB371702405C43A146B18B6392D7048F
:100328005C433775DC02130505C0B7160240D84296
:10033800B70700209387070011833D8BBA979C234A
:10034800D84293F5F70F13770708B357F50011EF65
:10035800EFF21FD5A533370700202328A700B1B334
:1003680037356E0113050560C9B737070020232804
:10037800F700828001A0970100209381A14B13818F
:10038800817C171500001305A5EE970500209385BD
:10039800E5C6170600201306E6C963FAC5008322DE
:1003A800050023A0550011059105E3EAC5FE1705D0
:1003B8000020130525C8938581806377B500232025
:1003C80005001105E36DB5FE89629382028873907A
:1003D80002308D427390428097020000938202C2DD
:1003E80093E2320073905230EFF0BFE697020000BC
:1003F800938242D87390123473002030B7F7FF1FEE
:1004080003A54770828058410C415045B707014009
:10041800938707403E9793C6F5FF39C29043758E80
:1004280090C3D043F18ED4C31443CD8E14C3184166
:1004380090479346F7FF758E90C7D047F18ED4C783
:10044800144541466399C6009447D98E94C7D4474A
:10045800558FD8C78280B6979443558F98C38280AA
:100468001C43F58F1CC38280944593F7060113F350
:10047800F60081C7DC413363F30083D2050093F7AC
:10048800F20FA9CF0C41611122C226C08147930304
:1004980080023D449304800405473317F70033F680
:1004A800E2006310C7026397760258C913962700C3
:1004B8003317C4001347F7FF6D8F3316C300B365B6
:1004C800E60085072147E399E7FC12440CC1824402
:1004D80021018280E39C96FC18C9C9BF828019C299
:1004E8000CC982804CC98280EFF29FBB51118545AF
:1004F8001305C00302C002C202C4CD2EB7F7FF1F06
:1005080003A74770B7065100938606609377F7F004
:100518006384D70C63E8F608B70624009386066060
:10052800638BD71A63EFF602B7062200938606603C
:100538006386D72063EFF600C1779387F7F07D8F46
:10054800B707200093870760631BF7009307900F96
:100558002DA83707230013070760638BE71A3101BB
:10056800A9B63707410013070760638EE70037070E
:100578005000130707606389E71437074000130723
:100588000760E39EE7FC9307900E371401407C80D8
:100598008A8593078002130504803EC4F1359307CA
:1005A800F00781A83707620013070760E38DE7FCAF
:1005B8006366F7043707530013070760638AE70C7D
:1005C80037076100130707606389E704370752009C
:1005D80013070760E395E7F893079006371401407F
:1005E8007C808A8593078002130504803EC4AD3D54
:1005F800AD477C808A85130504C089A83717700029
:10060800130707806386E70437077100130707603D
:100618006385E700370763009DB793070008371421
:1006280001407C808A8593078002130504803EC4BC
:10063800253D930740078A85130504C07C802D3526
:100648009307800C7C808A8537150140313D01BFB6
:100658009307D00E371401407C808A859307800267
:10066800130504803EC40935930770078A8513056E
:1006780004C07C80D53B9307F00C8A853715014070
:100688007C80DD3385477C808A85130504407DBFE7
:1006980093079006371401407C808A85930780026F
:1006A800130504803EC4C933AD478A85130504C0C9
:1006B8007C805D3B9307C0028A85371501407C80AA
:1006C80065339307C006C1B79307800C7C809307F6
:1006D80080023EC48DBF9307900F371401407C8081
:1006E8008A8593078002130504803EC4B53B9307AF
:1006F800F0078A85130504C07C80BD339307900EEC
:100708008A85371501407C8085339307D008A5BFBB
:100718009307900F371401407C808A8593078002E5
:10072800130504803EC489339307F0078A851305AF
:1007380004C07C80153B93076002BDBF9307900FF0
:10074800371401407C808A85930780021305048052
:100758003EC4193B9307F0078A85130504C07C80C3
:100768002133930700028A85371501407C80ED39D3
:10077800B54711BFB707002023ACA702828037779F
:1007880000401C4709C593E727001CC78280F59BDA
:10079800EDBF377700401C4BC19BC98F1CCB8280B3
:1007A800711102C0377700405C4793F707FC3EC0E1
:1007B80082475D8D2AC082475CC711018280B77766
:1007C80000409843759B98C398431367270098C3C4
:1007D800B7F700E003A707D11367470023A8E7D0BE
:1007E80005476311E50203A707D15D9B23A8E7D05E
:1007F8007300501037F700E0832707D1ED9B2328BB
:10080800F7D08280938707D0944B984B93F60602D3
:100818001367870298CB984B1377F7FD558F98CBC2
:10082800984B1367870098CB73005010984B136749
:10083800870098CB75BF371702405C5309C593E70B
:1008480017005CD38280F99BEDBFEFF27F853717E5
:1008580002405C43A1462A84B18B6394D7085C4369
:10086800B777DC02938707C01CC037160240544292
:1008780037070020130787029182BD8A369708231D
:1008880058429375F50F1377070833D5A70001E78A
:100898003E85EFF0BF8248C008C448C4B71702407D
:1008A800DC438D46AD83FD8B13D737008A07F18B68
:1008B800D98F13F6370113F7370063F4C60013878F
:1008C80047FFB7170240DC4363CA0700B707002099
:1008D80093874701BA978C23EFF04FFE08C86FF053
:1008E800CFFCB7376E0193870760BDBF99C537172F
:1008F80002401C4FC98F1CCF8280B7170240984F07
:100908001345F5FF798D88CF828099C53717024046
:100918005C4FC98F5CCF8280B7170240D84F134510
:10092800F5FF798DC8CF8280135755008547631925
:10093800F700B71702409C4333D5A700058982808A
:10094800B7170240DC53CDBFEFF28FF51629F577C4
:10095800FD17FD8EFE21DA252111D58F1EA95625FA
:10096800FD779387379FFD8EDE212A84AE84D58F4D
:100978009625D58FB625D58F5EA55E29C207C1837A
:1009880093F7F7CFD98F5EA94800C135B747014023
:10099800938707806315F404C24765453385A7022A
:1009A8008C408A05EFF08FF1930540062AC0EFF0DE
:1009B800EFF093144500024593054006EFF0CFF29F
:1009C80012059305400613052503EFF02FEF3D8927
:1009D800458D420541810AA461016FF00FEDB247D0
:1009E8006DBF5E2589C50967D98F5EA58280797735
:1009F8007D17F98FDDBFEFF2AFEAB707002003A537
:100A08000701B7157A0093850520EFF02FEB1375D2
:100A1800F50FB7070020238FA7029307803E330501
:100A2800F502B7070020239EA7026FF00FE8B7F77B
:100A380000E0D843799BD8C3370700200357C70382
:100A48003307A70298CB23A407009843136717001E
:100A580098C3D843058B75DF9843799B98C38280E8
:100A6800EFF20FE42A84116511118545130505027B
:100A7800B53D930700027C803715014085473EC28B
:100A88008A85E147130505403EC4F93A22C6374432
:100A98000140B70708006C00130504803ECA02C86D
:100AA800231C010055358545130504801D3F710140
:100AB8006FF0AFDFB2861D45370600E01307460F1B
:100AC8001C43EDFF8387450003835500A2074203BB
:100AD800B3E7670003833500B3E767000383650066
:100AE8006203B3E76700232CF60E1303860F6355E2
:100AF800D5028387050003832500E516A207620354
:100B0800B3E76700038315009D054203B3E7670059
:100B180093E777001CC35DB703860500838715003C
:100B280001452206558EC2075D8E83872500E207A0
:100B38005D8E10C38280411106C62EC00DCD1841AE
:100B4800AA8705C358417D5511CB8546631BD7003D
:100B580098472300070023A207000545B24041013A
:100B680082809847824614A39847050798C7D843B8
:100B78007D17D8C3DDB705468A852D3FF9BF01111A
:100B880026CA06CE22CC2AC02EC2B28493F71600FB
:100B9800634D06082E853EC63AC43684DD2B2247AF
:100BA800B2472A83635195086351E504998C13046D
:100BB8000002C1EFA687634FF006A68763D304003F
:100BC80081479D8C635BE30233076740BA86024521
:100BD800930500033AC83EC636C4B13FA246B247A1
:100BE8004247FD16EDF6BA9709A8898C098861D0A5
:100BF8005DFF95CF8147130400033E871246B30675
:100C0800F740B29683850600B9E1A6876349F004E8
:100C1800268663D304000146F2406244D244330579
:100C2800E600056182808144D1B7014349B71304C6
:100C3800000349B70245A2853AC81AC63EC4E53D35
:100C4800A24742473243FD17BDB78147A5BF0245BA
:100C58003AC63EC4CD353247A247050745B70245D7
:100C6800A2853AC43EC2C13D92472247FD1779BFCB
:100C7800397126DA06DE22DC2AC03EC42E83BA8405
:100C880091EDA24693070003014726866C08FC866F
:100C9800FD35F2506254D25421618280B285368487
:100CA80091CA294701446317E600635503003303DB
:100CB800604005448647A30901021307310393875F
:100CC80067FC3EC61A853ACA2EC81AC2EFF0CFC1D1
:100CD800A5471243C245524763D4A700B2473E9581
:100CE800130505039307F7FFA30FA7FE1A853ACC50
:100CF8002ECA1AC83EC2EFF06FBC4243D2456247C3
:100D08006376B30411C8B1C4A247898BB9C302453D
:100D18009305D002FD140535A247918B85C306477C
:100D280093071006024593050003631EF702213559
:100D38009305800702450904F914F53B1647A246B6
:100D4800924502452686253D2295A1B712472A835A
:100D580095BF92469307D0020144A38FF6FE9307EE
:100D6800E7FF3EC255BFC13B93058005E1B701458A
:100D7800828001458280130181FD22D006D226CED1
:100D88002AC62EC4328302C80144A24783850700BD
:100D980089EDB24781C781453E85713B92502285D6
:100DA8000254F24413018102828093075002638B3C
:100DB800F50032451ACA0504BD3B5243A2478507D0
:100DC8003EC4E1B7A2479384170083871700639A4C
:100DD800B7003245930550021ACA0504A93B26C438
:100DE800E9BFC5DB1307D0026387E702634CF7004E
:100DF80013073002638EE7041307B0026386E70423
:100E0800814731A813070003E39CE7FEA2479384B8
:100E18002700894729A0A24793842700854703878D
:100E280004009306D0026301D70463C8E602930660
:100E38003002630ED7029306B002630CD70226C4B1
:100E48000145A546A94281A0A247938427004DBF2A
:100E5800A247938427009147D9B793060003E3106C
:100E6800D7FE93E7270031A085048547C9BF93E7DC
:100E780047008504E9B733055502620761873A954B
:100E8800224705073AC4224703060700130706FD51
:100E98009375F70FE3F1B6FE1307E0029946631264
:100EA800E60222478146254605073AC4A945224756
:100EB80003070700130707FD9372F70F637A5602BB
:100EC80036C822471306C006030707006302C70493
:100ED8006349E602130680066306C7081306A006E0
:100EE800630BC7081306C0046307C708014635A883
:100EF800B386B60262076187BA96224705073AC4E5
:100F08007DB7130640076308C7061306A007E9BFA5
:100F18002246830516000D466396E50022471146D2
:100F280005073AC4224705073AC422479305000635
:100F38000307070063D5E50493058007E3C0E5E8E8
:100F480093052006E3DCE5E61307D7F91377F70FD7
:100F5800D545E3E5E5E685650A079385C5212E971E
:100F6800184302872246830516000146E39FE5FAE7
:100F78002247090755BF224705073AC485BF93058D
:100F8800700463C7E50213064004634BE616930634
:100F98003004E315D7E20327030093044300A30CAE
:100FA8000100230CE100BE8601472A862C08A9A06F
:100FB8009305800593061004E312B7E01147631305
:100FC800E60883250300032643009304830036C202
:100FD8003EC00147AA87C1463245513B2A94268321
:100FE800F1BB832503009304430081E58565938560
:100FF80045214247BE862A8632455136C5B7114734
:101008006310E60213071006832503000326430036
:10101800930483003AC23EC00547AA87A9466DBF1C
:10102800424783250300930443003AC2130710067E
:101038003AC085462A87294632451D3945B7930661
:101048001006ADBF424783250300930443003AC20C
:1010580036C02A8781464146C5B71147631FE60057
:101068001307100683250300032643009304830017
:101078003AC23EC00147AA8755B7424783250300B5
:10108800930443003AC2130710063AC081462A87E0
:101098005DB7114793E74700631CE6001307100686
:1010A8008325030003264300930483003AC20DB747
:1010B800424783250300930443003AC213071006EE
:1010C8003AC041BF11476310E60213071006832593
:1010D800030003264300930483003AC23EC001473D
:1010E800AA87A146D5BD4247832503009304430040
:1010F8003AC2130710063AC081462A8721462DBFF7
:10110800130710048325030093048300032343007B
:101118003AC22A8732453EC01A86B687A94691390F
:1011280075BD13071006F9BF1301C1FD2EC832CAD9
:10113800AA851008014506C636CC3ACE3ED032C044
:101148001D39B240130141028280411122C426C2D6
:1011580006C683070500AA840144DC81050499EFCB
:10116800A9479305310005460145DC81EFF09F94BE
:10117800B24022852244924441018280054693056B
:1011880031000145EFF01F93B38784008387070080
:10119800E9B7AA879823850775FF3385A7407D158A
:1011A8008280000053797374656D436C6B3A2564D3
:1011B8000D0A00004368697049443A253038780DB3
:1011C8000A000000696E69740D0000007374617292
:1011D800740D00006C6F6F700D000000676F207455
:1011E8006F207374616E6462793A2025640D0A0D6C
:1011F8000A0000000D0A4175746F2077616B652045
:1012080075703A202564200D0A000000286E756C60
:101218006C2900009E0F0000061000002A11000033
:101228002A1100002A110000C40D0000C40D00009E
:10123800C40D0000C40D0000C40D0000C40D000062
:10124800C40D0000CC1000009A100000C40D00006E
:10125800C40D0000EA0F0000C40D00006210000079
:0C126800C40D0000C40D00004610000082
:101274000102030405060708010203040506070822
:10128400006CDC020204060804080C100810182084
:101294001020304020406080010203040506070846
:0812A40001020304050607081E
:00000001FF
