:100000006F00A03E000000003A0100003C0100002B
:1000100000000000000000000000000000000000E0
:1000200000000000000000000000000000000000D0
:10003000E803000000000000E803000000000000EA
:10004000E8030000E8030000E8030000E803000004
:10005000E8030000E8030000E8030000E8030000F4
:10006000E8030000E8030000E8030000E8030000E4
:10007000E8030000E8030000E8030000E8030000D4
:10008000E8030000E8030000E8030000E8030000C4
:10009000E8030000E8030000E8030000E8030000B4
:0800A000E8030000000000006D
:1000A800511126C022C206C4828282441244A24050
:1000B80031018280634E050263C305042E86AA853A
:1000C8007D5515C285466378B6006356C00006069E
:1000D8008606E36CB6FE014563E4C500918D558D37
:1000E80085820582F5FA82808682C93F2E858282C2
:1000F8003305A0406347B000B305B040C1B7B305AE
:10010800B0408682653F3305A0408282868263C7FD
:100118000500634905005D372E858282B305B0402E
:10012800E35B05FE3305A040513F3305B0408282B2
:10013800000001A0B707EFBE37E700E09387070884
:100148003CC701A0EFF2DFF551118545414502C0DA
:1001580002C202C4EF00606D85451145EF00E06CF6
:10016800414485448A8537150140608026C222C4EF
:10017800092691478A85371501407C8026C222C40A
:10018800CD2C09478A8537150140788026C222C4BC
:10019800CD243715014091478A85130505807C8059
:1001A80026C222C4F924310109B7EFF27FEF0545D1
:1001B800F923F122EF004075716513050520EF0062
:1001C800407BB707002083A50701056513050508CF
:1001D800EF00F062512CAA85056513050509EF00AB
:1001E800106205651305050AEF009063A13F0565D8
:1001F8001305850AEF00D0620146C1453715014055
:10020800E5240546914537150140F92C01468945F5
:1002180037150140D12C371401400146914513058B
:100228000480D9241305C012EF0080710146C1452E
:1002380037150140552C01469145371501406D246D
:100248000146894537150140452405469145130562
:100258000480592C1305C012EF00806E0146C14579
:100268003715014051240146914537150140AD2C01
:100278000546894537150140852C014691451305EA
:1002880004809D241305C012EF00806B0546C1450C
:1002980037150140912C0146914537150140A92495
:1002A800014689453715014081241305048001461C
:1002B80091451D2C1305C012EF00806835BFEFF281
:1002C8003FDE8946B72702403714024094C31C40DA
:1002D8003707FF68C17493E717001CC05C40FD1422
:1002E800F98F5CC01C403707D7FE6D17F98F3707A9
:1002F8001000D98F1CC01C403707FCFF7D17F98FF1
:100308001CC05C40E58F5CC0B7079D001CC41C4C3A
:1003180093E707021CCCB71701409387074098431F
:100328001377F7F098C398431367070898C394CBDB
:10033800C9225C4037070001B70600025CC05C4078
:10034800E58F5CC05C405CC01C40D98F1CC0B717EF
:1003580002409843758F75DFD843B7160240719BEA
:10036800D8C3D84313672700D8C32147DC42B18BD1
:10037800E39EE7FEB7270240094798C33DB3371706
:1003880002405C43A146B18B6392D7045C43377546
:10039800DC02130505C0B7160240D842B707002093
:1003A8009387070011833D8BBA979C23D84293F516
:1003B800F70F13770708B357F50011EFEFF25FCE89
:1003C800F539370700202328A700C5B137356E0156
:1003D80013050560C9B7370700202328F700828076
:1003E80001A0970100209381E1441381817C1715B6
:1003F80000001305A5D197050020938525C0170691
:100408000020130626C363FAC5008322050023A033
:10041800550011059105E3EAC5FE170500201305EF
:1004280065C1938581806377B50023200500110598
:10043800E36DB5FE896293820288739002308D4223
:100448007390428097020000938242BB93E232008D
:1004580073905230EFF0BFE697020000938222D5E6
:100468007390123473002030B7F7FF1F03A547704D
:100478008280944593F7060113F3F60081C7DC41A7
:100488003363F30083D2050093F7F20FA9CF0C4131
:10049800611122C226C08147930380023D44930420
:1004A800800405473317F70033F6E2006310C702EC
:1004B8006397760258C9139627003317C400134769
:1004C800F7FF6D8F3316C300B365E6008507214734
:1004D800E399E7FC12440CC1824421018280E39C29
:1004E80096FC18C9C9BF828019C20CC982804CC940
:1004F8008280EFF2FFBA511185451305C00302C08F
:1005080002C202C41D26B7F7FF1F03A74770B7062C
:100518005100938606609377F7F06384D70C63E8FD
:10052800F608B706240093860660638BD71A63EF34
:10053800F602B7062200938606606386D72063EF2B
:10054800F600C1779387F7F07D8FB7072000938770
:100558000760631BF7009307900F2DA83707230048
:1005680013070760638BE71A310181B6370741002B
:1005780013070760638EE70037075000130707600B
:100588006389E7143707400013070760E39EE7FC19
:100598009307900E371401407C808A859307800268
:1005A800130504803EC4F1359307F00781A8370787
:1005B800620013070760E38DE7FC6366F7043707FB
:1005C800530013070760638AE70C370761001307B6
:1005D80007606389E7043707520013070760E3954C
:1005E800E7F893079006371401407C808A859307C3
:1005F8008002130504803EC4AD3DAD477C808A85EA
:10060800130504C089A8371770001307078063868D
:10061800E70437077100130707606385E7003707AA
:1006280063009DB793070008371401407C808A85D2
:1006380093078002130504803EC4253D93074007B5
:100648008A85130504C07C802D359307800C7C8037
:100658008A8537150140313D01BF9307D00E371405
:1006680001407C808A8593078002130504803EC47C
:100678000935930770078A85130504C07C80D53B2C
:100688009307F00C8A85371501407C80DD33854758
:100698007C808A85130504407DBF93079006371434
:1006A80001407C808A8593078002130504803EC43C
:1006B800C933AD478A85130504C07C805D3B930729
:1006C800C0028A85371501407C8065339307C006D0
:1006D800C1B79307800C7C80930780023EC48DBF0E
:1006E8009307900F371401407C808A859307800216
:1006F800130504803EC4B53B9307F0078A851305AC
:1007080004C07C80BD339307900E8A85371501405D
:100718007C8085339307D008A5BF9307900F3714C3
:1007280001407C808A8593078002130504803EC4BB
:1007380089339307F0078A85130504C07C80153B2D
:1007480093076002BDBF9307900F371401407C8068
:100758008A8593078002130504803EC4193B9307DA
:10076800F0078A85130504C07C80213393070002B3
:100778008A85371501407C80ED39B54711BFB70729
:10078800002023ACA7028280EFF29F913717024026
:100798005C43A1462A84B18B6394D7085C43B7773E
:1007A800DC02938707C01CC0371602405442370743
:1007B8000020130787029182BD8A36970823584282
:1007C8009375F50F1377070833D5A70001E73E8522
:1007D800EFF0DF8E48C008C448C4B7170240DC43B6
:1007E8008D46AD83FD8B13D737008A07F18BD98FE0
:1007F80013F6370113F7370063F4C600138747FF72
:10080800B7170240DC4363CA0700B7070020938785
:100818004701BA978C23EFF07F8A08C86FF0FF88EA
:10082800B7376E0193870760BDBF99C53717024078
:100838001C4FC98F1CCF8280B7170240984F1345B1
:10084800F5FF798D88CF8280EFF29F851629F5779D
:10085800FD17FD8EFE21DA252111D58F1EA95625FB
:10086800FD779387379FFD8EDE212A84AE84D58F4E
:100878009625D58FB625D58F5EA55E29C207C1837B
:1008880093F7F7CFD98F5EA94800FD3DB7470140E0
:10089800938707806315F404C24765453385A7022B
:1008A8008C408A05EFF09F81930540062AC0EFF03F
:1008B800FF8093144500024593054006EFF0DF8260
:1008C80012059305400613052503EFF02FFF3D8918
:1008D800458D420541810AA461016FF00FFDB247C1
:1008E8006DBF5E2589C50967D98F5EA58280797736
:1008F8007D17F98FDDBF93F5F51F4EA182800A2180
:100908006D8D3335A0008280EFF28FF9B707002094
:1009180003A50701B7157A0093850520EFF00FFAB4
:100928001375F50FB7070020238FA7029307803EA2
:100938003305F502B7070020239EA7026FF0EFF6F4
:10094800B7F700E0D843799BD8C33707002003578F
:10095800C7033307A70298CB23A40700984313675C
:10096800170098C3D843058B75DF9843799B98C3C4
:100978008280EFF2EFF22A84116511118545130583
:1009880005026535930700027C80371501408547CD
:100998003EC28A85E147130505403EC4D93C22C6BC
:1009A80037440140B70708006C00130504803ECAAD
:1009B80002C8231C0100493D8545130504801537ED
:1009C80071016FF08FEEEFF2AFED61112EC232C000
:1009D800014482476358F402B7440140B7470140D5
:1009E8009305000413850780193F6DD99247138535
:1009F8000480B3868700838506000504C205C1818B
:100A0800DD3DC1BF024521016FF02FEA411106C645
:100A18002EC00DCD1841AA8705C358417D5511CB6D
:100A28008546631BD70098472300070023A20700C9
:100A38000545B240410182809847824614A39847F1
:100A4800050798C7D8437D17D8C3DDB705468A85FB
:100A58009D3FF9BF011126CA06CE22CC2AC02EC25C
:100A6800B28493F71600634D06082E853EC63AC435
:100A78003684DD2B2247B2472A8363519508635198
:100A8800E504998C13040002C1EFA687634FF006B2
:100A9800A68763D3040081479D8C635BE302330719
:100AA8006740BA860245930500033AC83EC636C475
:100AB800B13FA246B2474247FD16EDF6BA9709A8DC
:100AC800898C098861D05DFF95CF814713040003A5
:100AD8003E871246B306F740B29683850600B9E111
:100AE800A6876349F004268663D304000146F240D2
:100AF8006244D2443305E600056182808144D1B75F
:100B0800014349B71304000349B70245A2853AC80F
:100B18001AC63EC4E53DA24742473243FD17BDB75A
:100B28008147A5BF02453AC63EC4CD353247A247E4
:100B3800050745B70245A2853AC43EC2C13D924762
:100B48002247FD1779BF397126DA06DE22DC2AC072
:100B58003EC42E83BA8491EDA24693070003014751
:100B680026866C08FC86FD35F2506254D254216109
:100B78008280B285368491CA294701446317E6000A
:100B8800635503003303604005448647A309010207
:100B980013073103938767FC3EC61A853ACA2EC8E5
:100BA8001AC2EFF06FD4A5471243C245524763D427
:100BB800A700B2473E95130505039307F7FFA30F58
:100BC800A7FE1A853ACC2ECA1AC83EC2EFF00FCF3C
:100BD8004243D24562476376B30411C8B1C4A24701
:100BE800898BB9C302459305D002FD140535A24788
:100BF800918B85C3064793071006024593050003AA
:100C0800631EF70221359305800702450904F9148C
:100C1800F53B1647A246924502452686253D229574
:100C2800A1B712472A8395BF92469307D002014481
:100C3800A38FF6FE9307E7FF3EC255BFC13B93055E
:100C48008005E1B70145828001458280130181FD5D
:100C580022D006D226CE2AC62EC4328302C8014428
:100C6800A2478385070089EDB24781C781453E8544
:100C7800713B925022850254F24413018102828012
:100C880093075002638BF50032451ACA0504BD3B31
:100C98005243A24785073EC4E1B7A2479384170091
:100CA80083871700639AB7003245930550021ACA22
:100CB8000504A93B26C4E9BFC5DB1307D002638737
:100CC800E702634CF70013073002638EE70413074B
:100CD800B0026386E704814731A813070003E39C49
:100CE800E7FEA24793842700894729A0A247938457
:100CF80027008547038704009306D0026301D704C1
:100D080063C8E60293063002630ED7029306B00268
:100D1800630CD70226C40145A546A94281A0A24773
:100D2800938427004DBFA247938427009147D9B7E2
:100D380093060003E310D7FE93E7270031A085044C
:100D48008547C9BF93E747008504E9B733055502CE
:100D5800620761873A95224705073AC42247030686
:100D68000700130706FD9375F70FE3F1B6FE1307A7
:100D7800E00299466312E6022247814625460507A6
:100D88003AC4A945224703070700130707FD9372D2
:100D9800F70F637A560236C822471306C0060307C0
:100DA80007006302C7046349E60213068006630668
:100DB800C7081306A006630BC7081306C004630719
:100DC800C708014635A8B386B60262076187BA9696
:100DD800224705073AC47DB7130640076308C706CC
:100DE8001306A007E9BF2246830516000D46639641
:100DF800E5002247114605073AC4224705073AC4C9
:100E08002247930500060307070063D5E504930509
:100E18008007E3C0E5E893052006E3DCE5E6130771
:100E2800D7F91377F70FD545E3E5E5E685650A07B2
:100E38009385850B2E971843028722468305160053
:100E48000146E39FE5FA2247090755BF22470507F0
:100E58003AC485BF9305700463C7E50213064004CE
:100E6800634BE61693063004E315D7E20327030025
:100E780093044300A30C0100230CE100BE86014744
:100E88002A862C08A9A09305800593061004E3126E
:100E9800B7E011476313E6088325030003264300E0
:100EA8009304830036C23EC00147AA87C146324533
:100EB800513B2A942683F1BB832503009304430006
:100EC80081E585659385050B4247BE862A863245AE
:100ED8005136C5B711476310E6021307100683257C
:100EE800030003264300930483003AC23EC005472B
:100EF800AA87A9466DBF4247832503009304430090
:100F08003AC2130710063AC085462A872946324551
:100F18001D3945B793061006ADBF42478325030028
:100F2800930443003AC236C02A8781464146C5B772
:100F38001147631FE60013071006832503000326E5
:100F48004300930483003AC23EC00147AA8755B7BD
:100F5800424783250300930443003AC2130710064F
:100F68003AC081462A875DB7114793E74700631C5B
:100F7800E6001307100683250300032643009304A5
:100F880083003AC20DB74247832503009304430008
:100F98003AC2130710063AC041BF11476310E60270
:100FA80013071006832503000326430093048300D8
:100FB8003AC23EC00147AA87A146D5BD424783250C
:100FC8000300930443003AC2130710063AC081464F
:100FD8002A8721462DBF1307100483250300930495
:100FE8008300032343003AC22A8732453EC01A864B
:100FF800B687A946913975BD13071006F9BF1301C5
:10100800C1FD2EC832CAAA851008014506C636CCCD
:101018003ACE3ED032C01D39B2401301410282801F
:10102800411122C426C206C683070500AA840144CA
:10103800DC81050499EFA947930531000546014570
:10104800DC81EFF05F98B24022852244924441014E
:1010580082800546930531000145EFF0DF96B3879E
:10106800840083870700E9B7AA879823850775FF57
:101078003385A7407D15828053797374656D436C01
:101088006B3A25640D0A00004368697049443A25A3
:101098003038780D0A000000696E69740D00000090
:1010A80073746172740D0000286E756C6C290000F1
:1010B800740E0000DC0E000000100000001000009C
:1010C800001000009A0C00009A0C00009A0C000016
:1010D8009A0C00009A0C00009A0C00009A0C000070
:1010E800A20F0000700F00009A0C00009A0C00007C
:1010F800C00E00009A0C0000380F00009A0C000087
:081108009A0C00001C0F00000E
:101110000102030405060708010203040506070887
:10112000006CDC020204060804080C1008101820E9
:1011300010203040204060800102030405060708AB
:08114000010203040506070883
:00000001FF
