:100000006F00002C000000003A0100003C010000DD
:1000100000000000000000000000000000000000E0
:1000200000000000000000000000000000000000D0
:10003000BE02000000000000BE0200000000000040
:10004000BE020000BE020000BE020000BE020000B0
:10005000BE020000BE020000BE020000BE020000A0
:10006000BE020000BE020000BE020000BE02000090
:10007000BE020000BE020000BE020000BE02000080
:10008000BE020000BE020000BE020000BE02000070
:10009000BE020000BE020000BE020000BE02000060
:0800A000BE0200000000000098
:1000A800511126C022C206C4828282441244A24050
:1000B80031018280634E050263C305042E86AA853A
:1000C8007D5515C285466378B6006356C00006069E
:1000D8008606E36CB6FE014563E4C500918D558D37
:1000E80085820582F5FA82808682C93F2E858282C2
:1000F8003305A0406347B000B305B040C1B7B305AE
:10010800B0408682653F3305A0408282868263C7FD
:100118000500634905005D372E858282B305B0402E
:10012800E35B05FE3305A040513F3305B0408282B2
:10013800000001A0B707EFBE37E700E09387070884
:100148003CC701A0EFF2DFF551118545414502C0DA
:1001580002C202C4F52989477C8085473EC28A8548
:10016800C147371501403EC4C92A31013DBFEFF2EE
:100178003FF30545C9290144F128D529E1372286ED
:100188008945371501402D241305401F13441400D9
:10019800092BF5B7EFF2DFF08946B727024037148D
:1001A800024094C31C403707FF68C17493E71700E7
:1001B8001CC05C40FD14F98F5CC01C403707D7FE9B
:1001C8006D17F98F37071000D98F1CC01C403707EF
:1001D800FCFF7D17F98F1CC05C40E58F5CC0B7073A
:1001E8009D001CC41C4C93E707021CCCB7170140A8
:1001F8009387074098431377F7F098C3984313679A
:10020800070898C394CB552A5C4037070001B70606
:1002180000025CC05C40E58F5CC05C405CC01C4078
:10022800D98F1CC0B71702409843758F75DFD84324
:10023800B7160240719BD8C3D84313672700D8C3A9
:100248002147DC42B18BE39EE7FEB727024009470E
:1002580098C3A1BD371702405C43A146B18B639296
:10026800D7045C433775DC02130505C0B716024096
:10027800D842B70700209387070011833D8BBA97B0
:100288009C23D84293F5F70F13770708B357F50067
:1002980011EFEFF2FFE01D35370700202328A700F4
:1002A80029B537356E0113050560C9B73707002032
:1002B8002328F700828001A09701002093818155AF
:1002C8001381817E1305C06D97050020938505D3A2
:1002D80017060020130606D463FAC500832205001A
:1002E80023A0550011059105E3EAC5FE1705002076
:1002F800130545D2938581806377B50023200500D7
:100308001105E36DB5FE896293820288739002300D
:100318008D427390428097020000938222CE93E22E
:10032800320073905230EFF0FFE69702000093829C
:1003380042E47390123473002030944593F7060119
:1003480013F3F60081C7DC413363F30083D2050061
:1003580093F7F20FA9CF0C41611122C226C0814741
:10036800930380023D449304800405473317F70044
:1003780033F6E2006310C7026397760258C91396F2
:1003880027003317C4001347F7FF6D8F3316C300D8
:10039800B365E60085072147E399E7FC12440CC1E1
:1003A800824421018280E39C96FC18C9C9BF8280DF
:1003B80019C20CC982804CC98280EFF27FCE5111DC
:1003C80085451305C00302C002C202C45124B7F711
:1003D800FF1F03A74770B7065100938606609377FF
:1003E800F7F06384D70C63E8F608B7062400938611
:1003F8000660638BD71A63EFF602B706220093866E
:1004080006606386D72063EFF600C1779387F7F01D
:100418007D8FB707200093870760631BF70093075A
:10042800900F2DA83707230013070760638BE71A7F
:100438003101A5B93707410013070760638EE7004C
:1004480037075000130707606389E7143707400030
:1004580013070760E39EE7FC9307900E37140140EB
:100468007C808A8593078002130504803EC4F13599
:100478009307F00781A83707620013070760E38D29
:10048800E7FC6366F7043707530013070760638ABE
:10049800E70C37076100130707606389E70437072C
:1004A800520013070760E395E7F89307900637149F
:1004B80001407C808A8593078002130504803EC42E
:1004C800AD3DAD477C808A85130504C089A83717E0
:1004D8007000130707806386E70437077100130766
:1004E80007606385E700370763009DB79307000837
:1004F800371401407C808A859307800213050480A5
:100508003EC4253D930740078A85130504C07C80B7
:100518002D359307800C7C808A8537150140313D45
:1005280001BF9307D00E371401407C808A8593075A
:100538008002130504803EC40935930770078A8535
:10054800130504C07C80D53B9307F00C8A853715CA
:1005580001407C80DD3385477C808A851305044013
:100568007DBF93079006371401407C808A859307E6
:100578008002130504803EC4C933AD478A8513053C
:1005880004C07C805D3B9307C0028A853715014013
:100598007C8065339307C006C1B79307800C7C80C5
:1005A800930780023EC48DBF9307900F3714014014
:1005B8007C808A8593078002130504803EC4B53B7E
:1005C8009307F0078A85130504C07C80BD33930721
:1005D800900E8A85371501407C8085339307D008B3
:1005E800A5BF9307900F371401407C808A85930735
:1005F8008002130504803EC489339307F0078A8577
:10060800130504C07C80153B93076002BDBF9307A8
:10061800900F371401407C808A8593078002130568
:1006280004803EC4193B9307F0078A85130504C06C
:100638007C802133930700028A85371501407C802E
:10064800ED39B54711BFB707002023ACA70082805A
:1006580099C5371702401C4FC98F1CCF8280B71726
:100668000240984F1345F5FF798D88CF8280EFF2CD
:100678003FA3B707002003A50701B7157A009385A4
:1006880005202D3C1375F50FB7070020238FA70011
:100698009307803E3305F502B7070020239EA70085
:1006A80029B4B7F700E0D843799BD8C337070020AF
:1006B8000357C7013307A70298CB23A40700984321
:1006C8001367170098C3D843058B75DF9843799B48
:0406D80098C38280C1
:1006DC0001020304050607080102030405060708C6
:0806EC00006CDC0200000000BC
:00000001FF
