:100000006F00E039000000003A0100003C010000F0
:1000100000000000000000000000000000000000E0
:1000200000000000000000000000000000000000D0
:100030009C030000000000009C0300000000000082
:100040009C0300009C0300009C0300009C03000034
:100050009C0300009C0300009C0300009C03000024
:100060009C0300009C0300009C0300009C03000014
:100070009C0300009C0300009C0300009C03000004
:100080009C0300009C0300009C0300009C030000F4
:100090009C0300009C0300009C0300009C030000E4
:0800A0009C03000000000000B9
:1000A800511126C022C206C4828282441244A24050
:1000B80031018280634E050263C305042E86AA853A
:1000C8007D5515C285466378B6006356C00006069E
:1000D8008606E36CB6FE014563E4C500918D558D37
:1000E80085820582F5FA82808682C93F2E858282C2
:1000F8003305A0406347B000B305B040C1B7B305AE
:10010800B0408682653F3305A0408282868263C7FD
:100118000500634905005D372E858282B305B0402E
:10012800E35B05FE3305A040513F3305B0408282B2
:10013800000001A0B707EFBE37E700E09387070884
:100148003CC701A0EFF2DFF551118545414502C0DA
:1001580002C202C4E92B85451145D12B414485448F
:100168008A8537150140608026C222C475249147CC
:100178008A85371501407C8026C222C4712C094724
:100188008A8537150140788026C222C47124371524
:10019800014091478A85130505807C8026C222C4C8
:1001A800A52C310119B7EFF2BFEF0545A52B512258
:1001B800712B493F0146C14537150140C92C0546F9
:1001C800914537150140E12401468945371501401D
:1001D8007D2C371401400146914513050480452CB8
:1001E8001305C01245230146C14537150140452472
:1001F8000146914537150140592C01468945371567
:1002080001407124054691451305048049241305CE
:10021800C0128D2B0146C145371501408D2C014672
:10022800914537150140A5240546894537150140F4
:10023800B92C0146914513050480912C1305C01271
:1002480091230546C1453715014091240146914542
:10025800371501402D2C0146894537150140052CDD
:1002680013050480014691451D241305C012192B5E
:1002780091B7EFF2FFE28946B727024037140240F0
:1002880094C31C403707FF68C17493E717001CC06C
:100298005C40FD14F98F5CC01C403707D7FE6D1712
:1002A800F98F37071000D98F1CC01C403707FCFF97
:1002B8007D17F98F1CC05C40E58F5CC0B7079D00B7
:1002C8001CC41C4C93E707021CCCB717014093874A
:1002D800074098431377F7F098C3984313670708C4
:1002E80098C394CB552A5C4037070001B706000233
:1002F8005CC05C40E58F5CC05C405CC01C40D98F32
:100308001CC0B71702409843758F75DFD843B716DE
:100318000240719BD8C3D84313672700D8C321472D
:10032800DC42B18BE39EE7FEB7270240094798C33A
:10033800ADBB371702405C43A146B18B6392D7042B
:100348005C433775DC02130505C0B7160240D84276
:10035800B70700209387070011833D8BBA979C232A
:10036800D84293F5F70F13770708B357F50011EF45
:10037800EFF21FD3A133370700202328A70035B396
:1003880037356E0113050560C9B7370700202328E4
:10039800F700828001A0970100209381A147138173
:1003A800817E1305007C97050020938525C51706D7
:1003B8000020130626C663FAC5008322050023A081
:1003C800550011059105E3EAC5FE17050020130540
:1003D80065C4938581806377B500232005001105E6
:1003E800E36DB5FE896293820288739002308D4274
:1003F8007390428097020000938242C093E23200D9
:1004080073905230EFF0FFE6970200009382E2D932
:100418007390123473002030944593F7060113F358
:10042800F60081C7DC413363F30083D2050093F7FC
:10043800F20FA9CF0C41611122C226C08147930354
:1004480080023D449304800405473317F70033F6D0
:10045800E2006310C7026397760258C91396270013
:100468003317C4001347F7FF6D8F3316C300B36506
:10047800E60085072147E399E7FC12440CC1824452
:1004880021018280E39C96FC18C9C9BF828019C2E9
:100498000CC982804CC98280EFF29FC051118545FA
:1004A8001305C00302C002C202C45124B7F7FF1FDC
:1004B80003A74770B7065100938606609377F7F055
:1004C8006384D70C63E8F608B706240093860660B1
:1004D800638BD71A63EFF602B7062200938606608D
:1004E8006386D72063EFF600C1779387F7F07D8F97
:1004F800B707200093870760631BF7009307900FE7
:100508002DA83707230013070760638BE71A31010B
:1005180069BE3707410013070760638EE700370796
:100528005000130707606389E71437074000130773
:100538000760E39EE7FC9307900E371401407C8028
:100548008A8593078002130504803EC4F13593071A
:10055800F00781A83707620013070760E38DE7FCFF
:100568006366F7043707530013070760638AE70CCD
:1005780037076100130707606389E70437075200EC
:1005880013070760E395E7F89307900637140140CF
:100598007C808A8593078002130504803EC4AD3DA4
:1005A800AD477C808A85130504C089A83717700079
:1005B800130707806386E70437077100130707608E
:1005C8006385E700370763009DB793070008371472
:1005D80001407C808A8593078002130504803EC40D
:1005E800253D930740078A85130504C07C802D3577
:1005F8009307800C7C808A8537150140313D01BF07
:100608009307D00E371401407C808A8593078002B7
:10061800130504803EC40935930770078A851305BE
:1006280004C07C80D53B9307F00C8A8537150140C0
:100638007C80DD3385477C808A85130504407DBF37
:1006480093079006371401407C808A8593078002BF
:10065800130504803EC4C933AD478A85130504C019
:100668007C805D3B9307C0028A85371501407C80FA
:1006780065339307C006C1B79307800C7C80930746
:1006880080023EC48DBF9307900F371401407C80D1
:100698008A8593078002130504803EC4B53B9307FF
:1006A800F0078A85130504C07C80BD339307900E3C
:1006B8008A85371501407C8085339307D008A5BF0C
:1006C8009307900F371401407C808A859307800236
:1006D800130504803EC489339307F0078A85130500
:1006E80004C07C80153B93076002BDBF9307900F41
:1006F800371401407C808A859307800213050480A3
:100708003EC4193B9307F0078A85130504C07C8013
:100718002133930700028A85371501407C80ED3923
:10072800B54711BFB707002023ACA700828099C541
:10073800371702401C4FC98F1CCF8280B717024061
:10074800984F1345F5FF798D88CF8280EFF25F953A
:10075800B707002003A50701B7157A009385052080
:10076800EFF0DF951375F50FB7070020238FA7006B
:100778009307803E3305F502B7070020239EA700A4
:100788006FF0BF92B7F700E0D843799BD8C337071B
:1007980000200357C7013307A70298CB23A40700FB
:1007A80098431367170098C3D843058B75DF9843A0
:0807B800799B98C382800000C8
:1007C00001020304050607080102030405060708E1
:0807D000006CDC0200000000D7
:00000001FF
